:020000040801F1
:1000000068F40120D5030108DB3801082535010813
:10001000D938010871320108494401080000000084
:1000200000000000000000000000000015030108AF
:100030005733010800000000710301088D3E0108DC
:10004000EF030108EF030108EF030108EF030108C4
:10005000EF030108EF030108EF030108EF030108B4
:10006000EF030108EF030108EF030108EF030108A4
:10007000EF030108EF030108EF030108EF03010894
:10008000EF030108EF030108EF030108EF03010884
:10009000EF030108EF030108EF030108EF03010874
:1000A000EF030108EF030108EF030108EF03010864
:1000B000EF030108EF030108EF030108EF03010854
:1000C000EF030108EF030108EF030108EF03010844
:1000D000EF030108C5400108D1400108DD400108D7
:1000E00059330108EF030108EF030108EF0301088A
:1000F000EF030108EF030108EF030108EF03010814
:10010000EF030108EF030108EF030108EF03010803
:10011000AD400108B9400108913F0108EF03010813
:10012000EF030108EF030108EF030108EF030108E3
:10013000EF030108EF030108EF030108EF030108D3
:10014000EF030108EF030108EF030108EF030108C3
:10015000EF030108EF030108EF030108EF030108B3
:10016000EF030108EF030108EF030108EF030108A3
:10017000EF030108EF030108EF030108EF03010893
:10018000EF030108EF03010800F002F800F0B2F8F5
:100190000AA090E8000C82448344AAF10107DA45E2
:1001A00001D100F0A7F8AFF2090EBAE80F0013F082
:1001B000010F18BFFB1A43F001031847D0D9000004
:1001C000F0D900000A444FF0000C10F8013B13F086
:1001D000070408BF10F8014B1D1108BF10F8015BA0
:1001E000641E05D010F8016B641E01F8016BF9D193
:1001F00013F0080F1EBF10F8014BAD1C0C1B09D1EA
:100200006D1E58BF01F801CBFAD505E014F8016B5B
:1002100001F8016B6D1EF9D59142D6D370470000ED
:100220000023002400250026103A28BF78C1FBD8FF
:10023000520728BF30C148BF0B6070476E2900F0DD
:100240005085702900F00D8266290CF03E846529E6
:100250000CF03B8467290CF0388461290CF037845A
:1002600003681B0A28BF41F08001692900F07E81E4
:10027000642900F07B81752900F078816F2901F0F5
:100280005E80782900F0D981E92900F0F987E42916
:1002900000F0F687F52900F0F387EF2901F05B8085
:1002A000F82900F0D8810368DB0928BF41F08001FC
:1002B000632900F06887732900F06D87E32901F056
:1002C000AF85F32901F0B485002070471FB50CF00D
:1002D000EFFB01F08BFB0400002000210BF0BCFFC2
:1002E000401C6060002000210BF0CCFFE0601FBDCF
:1002F00010B510BD02F040F81146FFF7E7FF07F018
:10030000A9FA00F0A8FA03B4FFF7F2FF03BC04F067
:1003100045FB00002C4B19680868B0E8F04F80F3EB
:100320000988BFF36F8F4FF0000080F3118870478A
:100330000000000008480068006880F308884FF05B
:10034000000080F3148862B661B6BFF34F8FBFF32D
:100350006F8F00DF00BF00BF08ED00E0DFF80C008A
:10036000016841F470010160704700BF88ED00E052
:10037000EFF30980BFF36F8F134B1A681EF0100F55
:1003800008BF20ED108A20E9F04F106009B44FF04B
:10039000500080F31188BFF34F8FBFF36F8F0AF0C7
:1003A0009FFF4FF0000080F3118809BC19680868AE
:1003B000B0E8F04F1EF0100F08BFB0EC108A80F3C9
:1003C0000988BFF36F8F7047D8000020EFF30580D6
:1003D000704700000948804709480047FEE7FEE7EC
:1003E000FEE7FEE7FEE7FEE7FEE7FEE7FEE7FEE7E5
:1003F00004480549054A064B70470000A13E010824
:100400008901010868EE012068F4012068F00120EC
:1004100068F00120704710B5044600F0EBFB00685F
:10042000005DC00602D504F1200010BD204610BDBD
:100430001CB50C46064B7B4469460090204600F0F4
:1004400078FE04460020694600F086FE20461CBD6A
:100450001F0D00007CB51D4616460C00009001D013
:100460002044401E074B7B442A4669460190304693
:1004700000F05FFE05461CB10020694600F06CFEEE
:1004800028467CBDF90C00000FB4044910B503AA3E
:10049000029800F085FE10BC5DF814FBC40000203B
:1004A0000FB41CB5084B06AA7B446946009005981A
:1004B00000F03FFE04460020694600F04DFE204655
:1004C0001CBC5DF814FB0000AD0C000070B50446C8
:1004D00085690068C10601D5302600E02026C007E6
:1004E00007D070BDD4E9012130469047206A401CF6
:1004F00020626D1EF6D570BD70B504468569007822
:10050000C00707D170BDD4E9012120209047206A9F
:10051000401C20626D1EF6D570BD70B50C460546B8
:10052000012A05D02878800600D5EA69002302E078
:10053000012305E05B1C934202D2E05C0028F9D164
:10054000A869E618C01AA861286A184428622846D3
:10055000FFF7BCFF04E0D5E9012114F8010B904737
:10056000B442F8D32846FFF7C7FF70BD2DE9F0412C
:100570000646002410687529314616A510D000F0F3
:1005800045FB002802DA404213A507E031688A07DC
:1005900001D512A502E0490704D511A5012401E007
:1005A00000F03DFB00210A2206F1240709E0B0FB20
:1005B000F2FCB0FBF2F302FB1C003030785418461A
:1005C000491C0028F3D123462A463046BDE8F041B5
:1005D00000F02EBB000000002D0000002B000000EA
:1005E00020000000F0B40D460188090502D5214C19
:1005F0007C4402E01F4C7C440E34002100F12406B0
:1006000008E002F00F071209E75D42EA03721B09D6
:100610007754491C52EA0307F3D1027800231207EA
:1006200004D5702D06D009B1022311342246F0BC46
:1006300000F0FEBA01231034F8E770B504460D4609
:100640002146106800F0EBFA024629462046BDE834
:1006500070400023C6E7D21D22F00703D3E9002330
:10066000C0E70368126843F0200303600823C361F6
:100670000023B7E737D000002DE9F05F8946044634
:100680004FF0000ADFF874B1FB44C0F820A0204608
:10069000E1688847002874D0252806D0D4E90121D4
:1006A0009047206A401C2062F1E700265F46204602
:1006B000E16888472028054607DB312D05D27819E7
:1006C00010F8200C08B10643F1E7B00701D526F079
:1006D0000406C4F81CA00027C4F818A02A2D09D0CD
:1006E000284604F054F938B304EB8708303DC8F8C5
:1006F000185019E059F8041B204604EB8702916159
:10070000E1688847012F054618D1E069002820DA02
:1007100026F020061DE0D8F8180000EB800005EB5D
:1007200040003038C8F818002046E1688847054680
:1007300004F02DF90028EED1012F0AD02E2D08D17A
:100740002046E16888477F1C0546022F46F02006B8
:10075000C4DBA069002803DA404246F00106A0612C
:10076000F00701D026F010066C2D0BD0682D09D0B3
:100770004C2D39D06A2D35D0742D35D07A2D33D00B
:1007800016E038E0E1682F4620468847B842054623
:1007900009D16C2F26D04FF48060E16806432046D3
:1007A0008847054604E06C2F1AD04FF4807006434A
:1007B0000DB3A5F14100192802D8203546F4006692
:1007C0004A462946204626604E46FFF737FD80B14F
:1007D00001280BD0F61D26F0070000F1080956E7A6
:1007E0004020E4E78020D8E70020D6E706F104099E
:1007F0004DE7284652E7206ABDE8F09FC7CF0000CA
:100800000FB400B58DB010A9099000910B904FF076
:10081000FF300A9000200C90064878440690064865
:1008200078446A4607900F9909A801F021F80DB0A5
:100830005DF814FB731000008B10000070B50646C5
:1008400000F0E0F90468054630460A22002101F074
:1008500091F82C6070BD10B50446AFF300802046BF
:10086000BDE81040FFF74FBD40EA0103024630B536
:100870009B0710D14FF0013400E008C208C91D1BCE
:100880009D4315EAC41FF8D013F0FF0102F8011BC5
:100890000DD01B0AF8E711F8013B002B02F8013BD1
:1008A00005D011F8013B002B02F8013BF3D130BD1C
:1008B00010B5431C02E010F8011B71B18107FAD199
:1008C0004FF0013202C88C1A8C4314EAC211F9D0DD
:1008D000C01A0A0603D0C01E10BDC01A10BD0A04FB
:1008E00001D0801E10BD0902FCD0401E10BD40EAA0
:1008F000010370B59B072ED14FF00136042A2AD38D
:1009000008C810C99D1B9D43121F15EAC61517D0B4
:10091000D8B2E1B2401A50EA056110D198B2A1B242
:10092000401A50EA05410AD123F07F4024F07F416C
:10093000401A50EA052102D1180EA0EB146070BDD8
:10094000A342DBD018BA21BA884201D9012070BD78
:100950004FF0FF3070BD0AB9002070BD10F8013BA8
:1009600011F8014B63B1A3420AD1521E08D010F80E
:10097000013B11F8014B1BB1A34201D1521EEDD135
:10098000181B70BD032A40F2308010F0030C00F0F9
:10099000158011F8013BBCF1020F624498BF11F8B9
:1009A00001CB00F8013B38BF11F8013BA2F1040272
:1009B00098BF00F801CB38BF00F8013B11F00303EA
:1009C00000F02580083AC0F0088051F8043B083A4E
:1009D00051F804CBA0E80810F5E7121D5CBF51F8F0
:1009E000043B40F8043BAFF30080D20724BF11F86A
:1009F000013B11F801CB48BF11F8012B24BF00F8CF
:100A0000013B00F801CB48BF00F8012B704710B53F
:100A1000203AC0F00B80B1E81850203AA0E81850F6
:100A2000B1E81850A0E81850BFF4F5AF5FEA027CB7
:100A300024BFB1E81850A0E8185044BF18C918C026
:100A4000BDE810405FEA827C24BF51F8043B40F8C7
:100A5000043B08BF7047D20728BF31F8023B48BFAC
:100A600011F8012B28BF20F8023B48BF00F8012BEA
:100A7000704702F0FF0343EA032242EA024200F019
:100A800002B84FF000020429C0F0128010F0030CED
:100A900000F01B80CCF1040CBCF1020F18BF00F871
:100AA000012BA8BF20F8022BA1EB0C0100F00DB820
:100AB0005FEAC17C24BF00F8012B00F8012B48BF7E
:100AC00000F8012B70474FF0000200B51346944622
:100AD0009646203922BFA0E80C50A0E80C50B1F196
:100AE0002001BFF4F7AF090728BFA0E80C5048BFAA
:100AF0000CC05DF804EB890028BF40F8042B08BF48
:100B0000704748BF20F8022B11F0804F18BF00F843
:100B1000012B704710B5044610F0030F08BF11F009
:100B2000030F40F015804FF0013E121FC0F20E80FF
:100B300051F8043BA3EB0E0C2CEA030C1CEACE1C70
:100B400008BF40F8043BF0D0A1F1040102F1040217
:100B5000521E08DB11F8013B002B00F8013BF7D1D6
:100B60001146FFF78EFF204610BD00004FF0013CFC
:100B700050F8042B51F8043B9A4221D1A2EB0C030C
:100B8000934313EACC1317D150F8042B51F8043BCC
:100B90009A4215D1A2EB0C03934313EACC130BD169
:100BA00050F8042B51F8043B9A4209D1A2EB0C03F4
:100BB000934313EACC13DBD04FF00000704700BF23
:100BC000D01A01BAB1FA81F101F0180122FA01F04C
:100BD000CB40C1F12001DBB2C0B2C01A2CFA01F344
:100BE000D11A914311EAC311E6D17047704770479B
:100BF0007047704710B500F0F9FE001D10BD00BF32
:100C000059B600000048704704EE012009684A0503
:100C100001D540B27047C905FCD500B270470968DC
:100C20004A0501D5C0B27047C905FCD580B27047EE
:100C30002DE9F0470D4699469246044600F12408F6
:100C40000168880604D5E06921F01001216000E008
:100C50000120A84201DD471B00E00027A1697A19A5
:100C600002EB0900081AA0612078C00602D42046D1
:100C7000FFF72CFC002608E0D4E901211AF8060051
:100C80009047206A401C761C20624E45F4DB207899
:100C9000C0060AD52046FFF719FC06E0D4E9012179
:100CA00030209047206A401C2062381EA7F10107BF
:100CB000F4DC07E0D4E9012118F805009047206A28
:100CC000401C2062281EA5F10105F3DC2046FFF739
:100CD00013FC2078000602D50220BDE8F087012031
:100CE000FBE711680268006A530501D508700AE045
:100CF000D30501D5088006E0130603D5C217C1E964
:100D0000000200E008600120704770472DE9FF4FA6
:100D10000C461E464FF0FF378BB0D2E90001DDF8DC
:100D200060800A908A46C1F30A5505B93D46002104
:100D300008464FF00000BAF1000F00F4400005DA59
:100D400000EB80004FF4400101EA50004FEA905957
:100D5000B9F1010F00DDB9460A9850EA4A000ED0F9
:100D600044F61050A5F2FF3545432F14B8F1000F9B
:100D70001ED07542291E1EDDC9F100021CE0B8F12B
:100D8000010F4FF0000001D0302103E0F24305E0F5
:100D90002154401CB042FBDB30460022002121548C
:100DA0000B99C1F80880C1E900200FB0BDE8F08FB1
:100DB000BD1B6D1CDEE74A4600DA694206A801F059
:100DC00045FA06AB93E8070003AB83E807005046FB
:100DD0000A9901F04CFD8DE80700A0F500501F387E
:100DE00000900398002D0ADD42F21F014A46084494
:100DF000002303A90390684601F0F8FF09E0A0F57D
:100E000000504A461F38002303A90390684602F0A9
:100E100017F88DE807000004000C03D04FF0FF30F6
:100E2000410800E01046B8F1000F03D00022009204
:100E300015461EE0751E05D400F0DCFD303262550B
:100E40006D1EF9D5B3460122084302D000227F1C53
:100E500004E02078302801D100227F1E002A099763
:100E600084D01DE0112D07DA00F0C4FD3032625548
:100E70006D1C50EA0102F5D1084302D00098C8B1B8
:100E80000EE00021681E05E0235C625C635422547E
:100E9000401E491C8142F7DBAB46A81B401E09904F
:100EA000002004F80B000B98099AC0F80880C0E9EC
:100EB000002B7AE711264FF0000857E72DE9F04F95
:100EC00088460446D21D22F0070191B0D1E9000105
:100ED000CDE90A0103F08AFB02460B98C00F01D04E
:100EE0002D2007E02068810701D52B2002E020217A
:100EF00001EAC000032A099001D0072A05DB034656
:100F00004146204600F042FF0BE12078800601D5E3
:100F1000E06900E00620B8F1650F814606D0B8F11F
:100F2000660F18D0B8F1670F70D131E00020B9F129
:100F3000110F009001DB112301E009F101030AAA5E
:100F400001A90CA8FFF7E2FEDDE90C70002609F10B
:100F50000105834647E001204B4600904FF00047D3
:100F60000AAA01A90CA8FFF7D1FEDDE90DB00C9982
:100F70005D46002610B909F101000D18B9EB050016
:100F800003D4C0F1FF3609F10105A5EB09002BE000
:100F9000B9F1010F01DA4FF001090020B9F1110F89
:100FA0000090484601DD112300E003460AAA01A98A
:100FB0000CA8FFF7ABFEDDE90C704D46002683461A
:100FC000207800070AD4AB4500DA5D4601A8012D60
:100FD00004DD411911F8011C302907D04F4502DA10
:100FE00017F1040F04DA012082460FE06D1EEEE7D0
:100FF000002F02DCED1B3E4403E0781CA84200DD1C
:101000007D1CB81B00F1010A4FF000472078000753
:1010100003D4AA4501DB4FF0FF3A0021B7F1004F9E
:101020000DF143088DF8431024D002202B23002F0C
:1010300001DA7F422D230A21021EA0F1010000DC0B
:101040005FB197FBF1FC97FBF1F201FB1C7C1746AB
:101050000CF1300C08F801CDEEE7A8F101000370A7
:101060002188090501D5452100E06521A0F101088D
:1010700000F8011C09980FA9A1EB0807FF1D00B19A
:101080000120411901EBEA70A1693844081A401E99
:10109000A0612078C00602D42046FFF717FA09980D
:1010A00028B1D4E901219047206A401C20622078B1
:1010B000C00622D52046FFF709FA1EE0002E04DB09
:1010C000B34502DD01A8805D00E03020D4E90121B4
:1010D0009047206A401C2062761CAAF101005FEA5A
:1010E000000A0AD100F082FCC0680168405CD4E9C3
:1010F00001219047206A401C2062281EA5F10105AD
:10110000DCDC07E0D4E9012118F8010B9047206AE4
:10111000401C2062381EA7F10107F3DC2046FFF7D0
:10112000EBF9032011B041E601694A1C026108781D
:10113000704700B58FB0CDE9013100210591054917
:101140007944CDE9031011466846FFF795FA0FB0D0
:1011500000BD0000E5FFFFFF0A6802F8010B0A600E
:101160007047D1E900239A4202D2531C0B601070E1
:10117000704710B5436913B1AFF3008001E0FFF78A
:10118000CCF9012010BD127800F124010A70002270
:101190004A700122EDE711684FF0FF32E9E70000E5
:1011A000074B70B50D467B44FFF7C3FF0446284646
:1011B00001F0BEF810B14FF0FF3070BD204670BD99
:1011C000FF6000002DE9FF5F15468A460446DFF800
:1011D000AC80F8440027D8E900103E46CDE9001065
:1011E00010E03AF816106A4602A801F0A5F8411C72
:1011F00007D02178890603D5E269391891420DD8C4
:101200000744761C2078800602D5E069B84205DDE7
:10121000AE42E6DB3AF816000028E2D1A069C01B16
:10122000A0612046FFF752F9D8E90010CDE900107F
:10123000002017E03AF818106A4602A801F07CF87E
:10124000B0F1FF3F81460BD000250DF1080B05E002
:10125000D4E901211BF8050090476D1C4D45F7D3DB
:1012600008F10100B0428046E4DB206A3844206285
:101270002046FFF741F9BDE8FF9F00008EC4000043
:101280002DE9F0418046D21D22F007020025D2E967
:101290000002F52915A614D0011E72F1000106DA2C
:1012A0000023D0EB030063EB020211A608E0D8F89C
:1012B00000108B0701D50FA602E0490701D50EA645
:1012C00001251146002408F1240704E000F092FBF8
:1012D00030323A55641C50EA0102F7D12B463246AF
:1012E00021464046BDE8F041FFF7A2BC00000000E7
:1012F0002D0000002B0000002000000030B4002171
:1013000000F1240408E002F00705D208303542EA73
:101310004372DB086554491C52EA0305F3D10468A3
:10132000002310A2250707D5A40600D421B1C46963
:1013300001230DA2641EC46130BCFFF779BC10B557
:10134000044621461068FFF76AFC02462046BDE8C5
:1013500010400023D2E7D21D22F00701D1E900237B
:10136000CCE7000000000000300000002DE9FF4F36
:1013700006468BB00878FF2806D0491C2D2805D0DA
:1013800000244FF0000908E000200CE00124F8E7F9
:1013900009EB8903491C00EB43090878FF28F7D1C2
:1013A00014B1C9F100008146107800252C46AA46E8
:1013B00029462D2801D02B2804D1521C2D2813D0CA
:1013C000002082468B461078FF280FD04FF0000C8B
:1013D0000A21521CA5FB017804FB018105FB0C11BD
:1013E000C5194BEB0104EEE70120EAE700210846AE
:1013F0004FF00000BAF1000F02D000EB800040086F
:10140000C0F38157012F01DD4FF0FF370E9955EAE8
:10141000040009EB01080BD04FF0020918F5FA7F20
:1014200016DA4FEACA70002F706008DD012007E06D
:101430004FEACA70C6E900B00FB0BDE8F08F0020D7
:101440003060FFF7DFFBC0F800901821084616E077
:10145000B8F5FA7F18DD002F02DAF748784401E08A
:10146000F6487844D0E90010C6E9001040EACA7096
:101470007060FFF7C7FBC0F80090142108460FB05A
:10148000BDE8F04F0BF01EBB002108464FF00000F6
:10149000B8F10001099002DAC7F1000200E03A4613
:1014A00001DAC8F1000106A800F0D0FE06AB93E80F
:1014B000070003AB83E8070044F23E005BEA040147
:1014C0000090584604D144F21E012C465D4600911E
:1014D000210C0904014306D10099240444EA15446F
:1014E0002D041039009104F07F41014306D1009989
:1014F000240244EA15642D020839009104F0704179
:10150000014306D10099240144EA15742D01091FF5
:10151000009104F04041014306D10099A40044EA3F
:101520009574AD00891E009104F00041084304D178
:1015300000986D196441401E00904FF001033A4637
:101540006846B8F1000FCDE9014503A902DD01F0BD
:101550008CFC01E001F05FFCBAF1000F04460D467F
:1015600001D084F00044002108464FF000000999A2
:1015700040F2FF77484010F00C0F07D124F00040F4
:10158000284303D0C4F30A50B84212D1FFF73AFB04
:10159000C0F80090C4F30A50B8420AD1A848784471
:1015A000D0E90010C6E9001004F000410843706063
:1015B00042E7C6E900543FE72DE9FF4F1F464FF0D1
:1015C000000A4FF0FF38454691B0D7E90146CDF803
:1015D0003CA000F00BFAC0680168405C1090B9694B
:1015E00012986D1C8847396A814688470028F6D1D1
:1015F000B9F1FF3F0AD0002E24F4D06411DDB9F117
:101600002B0F08D0B9F12D0F0BD102E0404615B0D9
:1016100013E744F48064B96912986D1C8847761EFC
:101620008146600504A901D52D2000E02B20002E65
:1016300001F1010B0DF130088DF810003FDDB9F11B
:10164000690F08D0B9F1490F05D0B9F16E0F02D07A
:10165000B9F14E0F1CD13B4601A8009580E850021D
:10166000DDE912126FF002000BF097FAC11CCED127
:101670000EE0B96912986D1C884781461398761E52
:1016800044F4007405600F98401C002E0F9016DD86
:10169000B9F1300FEDD0B9F1780F02D0B9F1580F90
:1016A0000DD10F9801280AD13B46CDE90054DDE960
:1016B0001212001F02960BF06EFAC11CA7D11099EE
:1016C00089453ED144F0800406E01399681CAAF1D4
:1016D000010A44F400740860B9696D1C1298761E02
:1016E000884730288146F0D02BE01099894505D1F4
:1016F000200603D4761E44F0800418E0484603F028
:1017000046F908B3761E0DF123018B4544F40074AD
:1017100008D2A9F130000BF8010B200607D5AAF179
:10172000010003E0200602D40AF101008246A00570
:1017300002D51399681C0860B96912986D1C884716
:101740008146002ED1DC53E0002E51DDB9F1650F4A
:1017500002D0B9F1450F4BD1A00549D5B9696D1C2F
:101760001298761E24F440748847002E81460CDDC2
:101770002B2804D0B9F12D0F07D144F48074B96936
:1017800012986D1C8847761E8146E00501D52D21F3
:1017900000E02B2108F8011BCDF8008021E0761E27
:1017A0000DF13901884544F400740CD2A9F13000E0
:1017B00010F0FF0088F8000002D10099884509D98F
:1017C00008F1010806E0E00501D51E4801E042F2FB
:1017D0000F708246B96912986D1C8847814613982C
:1017E0000560002E04DD484603F0D1F80028D6D16C
:1017F000F96912988847FF2053468BF8000088F853
:10180000000000200A900B9004AA0CA90AA8FFF778
:10181000ADFDA00502D46FF00100F8E614F0240F2E
:1018200012D0E0071CD13868DDE90A12031D3B60C5
:101830000068C0E9001213E054C7000046C700006A
:101840000AC60000F1D8FFFF0AA9684603F08CF829
:10185000E00705D13868009A011D39600068026010
:101860002846D4E602681144137801601846704790
:10187000D1600549794451610449794411620021DC
:101880001161114600F0D8BAEDFFFFFF0102000020
:10189000426842B1016811F8013B23B1521EC0E910
:1018A0000012184670470121C160881E70474268C7
:1018B0005AB1C368016843B983688B4205D0491E99
:1018C000521CC0E90012002070474FF0FF307047F3
:1018D0000FB4002300B589B00CA900910B99CB601F
:1018E000214B7B440693214B7B44079304236FF0E9
:1018F0000042CDE901321E4A7A446B460892024604
:1019000000200BF046F909B05DF814FB70B50646EF
:101910004FF0FF3015460C46324686B00091CDE9B7
:10192000010169460020049004A8FFF7D1FF024698
:101930000498211825B108B1084600E02046286027
:10194000049800280DD0002A02DD0098884208D0B3
:101950003246081B69460094CDE9010404A8FFF74C
:10196000B7FF06B070BD0000ABFFFFFFC3FFFFFF76
:10197000830100002DE9F04791460F46804604465A
:10198000002614F8015B2DB1FFF734F90068405DC3
:10199000C007F6D12B2D02D02D2D18D0641E4A463B
:1019A0003946204600F002FC27B13968A14201D136
:1019B000C7F800804FF0020471050BD540420028A3
:1019C00003DDFFF71FF90460A007BDE8F08746F4C8
:1019D0008066E4E70028F8DAFFF714F904606FF096
:1019E0000040F2E70048704704EE012000487047CD
:1019F00024EE012030B5B0F10A024FEA900E71F1E9
:101A000000034EEA817EB0EB0E0061EB91014FEADC
:101A1000101E4EEA017E10EB0E0041EB11114FEA51
:101A2000102E4EEA016E10EB0E0041EB11214FEA31
:101A3000104E4EEA014E10EB0E0041EB11414018E2
:101A400041F100014FEAD00040EA41704FEAD10174
:101A500010EB80054FEA810444EA907444EB0104E2
:101A60006D1944EB0404521BA3414FF0000348BF1F
:101A70000A3200D530BD401C41F1000130BD10B527
:101A80000446FFF7B7F80068005D00F0010010BDE4
:101A90002DE9F04F04460D46D21D22F0070089B013
:101AA000D0E900974846394602F0A0FD0246F80FFB
:101AB00001D02D2307E02068810701D52B2302E008
:101AC000202101EAC0038DF820300BB1012000E095
:101AD0000020032A824601D0072A04DB294620463B
:101AE00000F054F93FE12078800601D40D2500E094
:101AF000E569C7F30A560D2D49DA00214FEA175B55
:101B000008464FF00000002F00F4400007DA00EB19
:101B100080004FF4400100EBD07001EA60008115B5
:101B2000012901DD4FF0FF3100224FEA850CBCF1A5
:101B3000180F06D31346ACF118004FF08052C24084
:101B400003E04FF4801323FA0CF30CF10C0CBCF1FE
:101B5000200F04D3ACF1200C09FA0CF001E007FAD5
:101B60000CF000294FF0004801DD18B90FE00ED14C
:101B700040450CD319EB02095F4121B9404502D120
:101B80009F4329EA0209BBEB175F00D0761C20882F
:101B9000000502D57B48784402E07A487844193839
:101BA00008AA302302F80A30037C0AF10101002E52
:101BB0000AF1020A53546A4602DC4FF0300101E098
:101BC0004FF031014FF001088DF8001002D0A6F25D
:101BD000FF3603E059EA470100D06B4E002D02DCCE
:101BE0002178090704D54FF002082E218DF8011045
:101BF000C44600210BE0C7F303433F01C35C491C0B
:101C00006D1E02F80830052908F1010801DA002DDF
:101C1000F1DC00210CE000EB1973491C1B786D1EF0
:101C2000082902F808304FEA091908F1010801DA19
:101C3000002DF0DC21688B0602D516E0A8F1010822
:101C4000E04505DD02EB080313F8013C302BF5D02D
:101C5000B8F1000F09DD02EB080313F8013C2E2B4D
:101C600003D1090701D4A8F10108002D05DD3E21AB
:101C700002F808106D1E08F10108407C002E02F8E1
:101C8000080008F1010804DA2D20764202F8080065
:101C900002E02B2002F808000A214FF47A708642F5
:101CA00008F101080BDB96FBF0F3303302F8083043
:101CB00096FBF0F308F1010800FB136601E0642EC7
:101CC0000CDB642096FBF0F3303302F8083096FB0F
:101CD000F0F308F1010800FB136601E00A2E06DBB1
:101CE00096FBF1F0303002F8080008F1010896FB8D
:101CF000F1F001FB1060303002F80800A16908F132
:101D0000010808EB050202EB0A00081AA06120781E
:101D1000C00602D42046FEF7D9FB216A08AE01EBCB
:101D20000A00206204E0D4E9012116F8010B904773
:101D3000BAF1010AF7D22078C00602D52046FEF794
:101D4000C5FB6E4609E016F8010B3E280FD0D4E91A
:101D500001219047206A401C2062B8F10108F2D2AC
:101D60002046FEF7C9FB09B00320BDE8F08F206ACA
:101D70002844206203E0D4E90121302090476D1E01
:101D8000EBD3F8E7E5BA000002FCFFFF2DE9F041D4
:101D90001F46044603260168072A01F4006004DB9D
:101DA00008B116A505E016A503E008B115A500E0E9
:101DB00015A521F010002060A069C01EA0610FB120
:101DC000401EA0612046FEF781FB4FB1D4E90121FE
:101DD00038469047206A401C2062C01C206206E002
:101DE000206AFAE7D4E9012115F8010B9047761E25
:101DF000F8D22046FEF780FBBDE8F0814E414E0050
:101E00006E616E00494E4600696E660010B543690A
:101E100013B1AFF3008001E0FFF7D4F9012010BD4A
:101E2000128800F1240182840022C2840122EDE79D
:101E300011684FF0FF32E9E72DE9F34F4FF0000A48
:101E40000C4656468DB001200C9001F10C000B9011
:101E500062690B9801219047051E2DD0252D2CD0AD
:101E6000216A8847C0B162690B9801219047216AB5
:101E700088470028F7D16269411E0B98904700E01F
:101E8000761CA1690D988847216A88470028F7D1F8
:101E9000E1690D988847DBE7A1690D988847A8425A
:101EA000074601D1761CD3E7E1690D9888477F1C6E
:101EB00002D1BAF1000F6FD06BE162690B98002775
:101EC0003D46394690472A2804D162690B98012182
:101ED00090470125DFF8D08262690B980121904775
:101EE000A0F130010A290AD24745E5DC07EB87015A
:101EF00000EB4107303FDFD445F01005ECE7E90681
:101F000001D46FF000476C280AD04C2814D0682800
:101F100015D06A280DD074281CD07A281AD01DE05C
:101F200062690B98012190476C2802D045F00405A6
:101F300014E045F002050DE045F020050AE0626975
:101F40000B9801219047682802D045F0080505E06C
:101F500045F4006562690B9801219047C4E9015777
:101F600065283DD019DC58287AD00CDC452837D0BC
:101F700004DC252826D041289ED131E046282FD0E8
:101F8000472899D12CE05B2877D0612828D0632896
:101F90007CD0642823D15AE0F6E06F2848D008DCD2
:101FA00066281DD067281BD0692821D06E2816D13D
:101FB00027E0702845D0732868D0752847D0782846
:101FC0000DD14DE0A1690D988847252805463FF4BD
:101FD00069AFE1690D9888476D1C3FF46AAFD8E09E
:101FE0000D9923466A466FF001000AF0D2FDC5E064
:101FF00045F0400023464FF000026060A80736D449
:102000003EE0E8077FF447AF2068011D21600068CB
:10201000290501D506701BE7290701D5068017E7BA
:10202000A90703D5F117C0E9006111E706600FE7C2
:1020300045F0400023464FF008026060A80716D420
:102040001EE040F60E0125EA0100606016E045F052
:10205000400023464FF00A026060A80707D40FE053
:1020600045F040006060A80708D5234610220D996E
:102070006FF00100AFF3008080E007E010222346FC
:102080000D996FF00100AFF3008077E04FF0000989
:1020900063284F46C8464B46CB4602D05B2806D045
:1020A00038E0E80601D40120A060012732E062692F
:1020B000D4F80CB00B98012190475E2807D14FF05F
:1020C000010949466269D4F80CB00B989047216920
:1020D00039B900210A4603AB43F82120491C0829DD
:1020E000FADBD8B3216949B308F1010862690B989A
:1020F000012190475D28F4D1B9F1000F09D00020EB
:1021000003A951F82020D24341F82020401C082880
:10211000F7DB03AB2069002820794FEA40701ED01E
:102120005B462246CDF80080CDE901970D99002845
:102130006FF0010020DAAFF300801FE0C11703AA9F
:1021400000EBD1614B1121F01F0102EB8302411A18
:1021500013680120884003431360C7E719E00D9915
:10216000224600286FF00100009702DAAFF30080EA
:1021700004E0AFF3008001E0AFF3008000280ADA4A
:10218000401C06D10C9820B14FF0FF300FB0BDE8D5
:10219000F08F5046FAE7E90701D10AF1010A064437
:1021A00000200C9054E60000CCCCCC0C2DE9F05F64
:1021B000824615468B4600270AF10104B94600788D
:1021C000302801D09DB113E014F8010B01277828C5
:1021D00003D0582801D045B10AE00DB1102D07D128
:1021E000002714F8010B102502E0082500E00A255D
:1021F0000026B0460EE005FB080005FB06F10127AE
:102200001FFA80F801EB1046B6F5803F00D3B946BF
:1022100014F8010B294600F0DFF80028EBDABBF1D7
:10222000000F05D00FB1641E00E05446CBF800400B
:10223000B9F1000F06D0FEF7E5FC02210160C81ECF
:10224000BDE8F09F48EA0640FAE700002DE9F047B4
:10225000814616468AB0354878440DC88DE80D0091
:1022600032487844801C03AC0DC884E80D0041F668
:102270009B300844372190FBF1F290FBF1F5A5F17A
:10228000800501FB12041B3C02D56442012000E0E2
:102290000020DFF898A080460027FA44AAF1BE0A81
:1022A0000EE0E0070AD03246684607EB47010123FB
:1022B0000AEB810100F0C4FD8DE8070064107F1C6B
:1022C000002CEED1194F7F44AE3F19E0E80715D03E
:1022D00007EB04100DF1180A90E80E008AE80E00D2
:1022E000C068F04201D1981908903246012306A92E
:1022F00003A800F0A5FD03AB83E807006D10641C84
:10230000002DE3D14FF0010332466946B8F1000FCA
:1023100003A802D000F06AFD01E000F091FDC9E9D8
:102320000001C9F808200AB0BDE8F087B4B4000085
:10233000007B00F08000704770B516460C460546DD
:10234000FEF758FC036893F80101012806D0FF2C22
:102350000FD8185D68B101202C7070BDD3F807014B
:102360003246214603F2071303442846BDE8704075
:1023700018474FF0FF3070BD7546FFF733FBAE4690
:1023800005006946534620F00700854618B020B581
:10239000FEF72EF8BDE820404FF000064FF0000792
:1023A0004FF000084FF0000B21F00701AC46ACE8FD
:1023B000C009ACE8C009ACE8C009ACE8C0098D466A
:1023C000704710B5FEF71EFC006810BD10B504463E
:1023D000FEF718FC046010BD3A2800D2303820F017
:1023E0002002412A01D3A2F13700884201D34FF0E5
:1023F000FF3070472DE9FF4F1F464FF03C0987B073
:102400004FF00042DDE9141001F10108DDF858A099
:1024100002EA40500390002005908346054604469A
:102420000490B969461E08988847AAF1010A0290EB
:10243000BAF1000F3BDD02982E2815D01021FFF7CE
:10244000CBFF00282EDB4FF0010B0599014317D07D
:10245000B9F1000F0BDB4A46C11700F0F5F905434F
:102460000C43A9F1040905E0012004900BE008B138
:1024700045F0010501200590049820B9361D02E0C1
:10248000049800B1361FB969089808F10108884717
:10249000BBF1000FAAF1010A0290C9D00999C1F855
:1024A0000080C5E70298702808D0502806D0F96946
:1024B00008988847BBF1000F14D04FE0002002902D
:1024C0000120BBF1000F049009D0B969089808F108
:1024D00001088847AAF10109B9F1000F07DCF96981
:1024E000089888476FF001000BB0BDE8F08F2B28EB
:1024F00004D02D280CD14FF0FF300490B969089812
:1025000008F101088847A9F10109B9F1000FE6DDDA
:10251000411CE4D00A21FFF75FFF0028DFDB0299AE
:1025200008F1010801EB810100EB41000290B9695B
:10253000089888470A21FFF74FFF099AA9F1010976
:10254000B9F1000FC2F8008001DD0028E7DAF9696F
:10255000089888470499029800FB016655EA040030
:1025600004D004F04041090002D006E0039898E04E
:10257000A40044EA9574AD00B61E04F000410800C2
:1025800002D16D196441761E159810F0240F03D006
:102590004FF00B095C4803E04FF028096FF07D0015
:1025A0008246564507DAAAEB06018944B9F1410F84
:1025B00001DD4FF0410901200021A9F1010200F0E5
:1025C00043F9024628400B462140084301D001212F
:1025D00000E00021501E029143F1FF3128402140CC
:1025E000084301D0012000E000200299834651EA0F
:1025F0000B014FD0002108464FF00000039900F472
:10260000400039B100EB80004FF4400100EBD07086
:1026100001EA60008015012802DD4FF0FF3000E084
:1026200013D0401C36D0029860B3BBF1000F0CD120
:102630004A460120002100F007F9284021400843C4
:1026400001D0012000E00020E0B101204A46002135
:1026500000F0FAF8034640190A4661412D1A8C41F0
:1026600011D3B9F1400F09DD159810F0240F02D0F5
:10267000AAF1340603E0AAF1170600E0761C002553
:102680004FF0004406E05B1E42F1FF3220EA0305F2
:1026900021EA0204CAF10100B04206DA1B4903989C
:1026A00008430190002000900EE0039AC4F3D32168
:1026B000E80A0A43164940EA44500A433146CDE944
:1026C0000002684602F059F9159810F0240F0BD05B
:1026D0001598C00715D13868DDE90012031D3B606D
:1026E0000068C0E900120CE002A8694602F03CF95B
:1026F0001598C00705D13868029A011D3960006835
:1027000002604046F0E6000002FCFFFF0000F07FA0
:102710000000F03F2DE9FF4F92461D4685B04FF077
:102720000041DDE9124BDDE914727F1E01EA4B50D6
:10273000414940F0FF4940EA0108002122F0200011
:102740004928049102D04E2828D04CE03BA0012615
:1027500007C88DE80700A9690698641C88477F1E92
:10276000014606D41DF8060018B121F0200181426F
:102770000BD0E96906988847032E34D0082E32D052
:102780006FF0010009B0BDE8F08F761C032E01D078
:10279000082EE0D1601CCAF80000DCE7A9690698A1
:1027A000641C88477F1E2AD420F02000412826D1AF
:1027B000A9690698641C88477F1E20D420F0200059
:1027C0004E281CD1A9690698641C88477F1E48F4CE
:1027D000002849F48009CAF8004001D4282806D00E
:1027E000E969069888475FEACB7012D022E0A969B0
:1027F0000698641C88477F1E01D4002803DAE96923
:1028000006988847BCE72928F1D1641CCAF8004023
:10281000E9E71BF0240F07D028680499031D2B60FB
:102820000068C0E9001805E02868021D2A600068F9
:10283000C0F800902046A5E70000F07F494E4649C9
:102840004E49545900000000B2F120030AD5C2F1EC
:10285000200301FA02F120FA03F300FA02F041EA40
:102860000301704700FA03F14FF0000070475FEA80
:10287000400C08BF91F0000F4FEA8C234FEAC122B1
:1028800043EA51514FEA1C5018BF00F5F0404FEA9F
:10289000300018BF41F000415FEA6C5C00F0298015
:1028A000BCF1FF3F08BF40F080407047130C06BFEB
:1028B00012044FF0100C4FF0000C130E04BF120264
:1028C0000CF1080C130F04BF12010CF1040C930F50
:1028D00004BF92000CF1020CD30F04BF52000CF1A4
:1028E000010C11464FF00002A0F11F00A0EB0C00FC
:1028F000704711F0004F08BF704731F000413FF4BE
:10290000D5AF0B0C06BF09044FF0100C4FF0000CB4
:102910000B0E04BF09020CF1080C0B0F04BF0901D8
:102920000CF1040C8B0F04BF89000CF1020CCB0FCF
:1029300004BF49000CF1010CCCF12003A0EB0C000A
:1029400022FA03F302FA0CF241EA030100F101005A
:10295000704720F07F4C80EA030023F07F47ACEB08
:10296000070303F57C5300F0004003F1FF032DE95A
:1029700080494FEA154B09B44FEA144325EA0B4E40
:1029800024EA03480FF2042606EB132749083E7891
:102990005FEA320203FB0667C7F5000707FB06F68E
:1029A0004FEA54374FEAD64606F1020607FB066C9B
:1029B000CCF1005C4FEA1C472CEA074C07FB06F4FD
:1029C0000CFB06F504EB15464FEA961634BF0020C3
:1029D0004FF000404FEAD13706FB07FC4FEA1C4C92
:1029E0000CFB0BF7D21B03FB0CF761EB07010CFB95
:1029F0000EF7B0EB074072EB17420CFB08F734BF41
:102A0000A2EB0742B2EB074261EB17414FEA0C44DD
:102A10004FEA910706FB07FC4FEA1C4C0CFB0BF737
:102A2000B0EBC74072EB573203FB0CF734BFA2EB9D
:102A3000C742B2EBC74261EB57310CFB0EF7B0EB6C
:102A4000C70072EB57720CFB08F734BFA2EBC7024A
:102A5000B2EBC70261EB5771039F4FEA816141EA14
:102A6000921104EBCC044FEAD1374FEA826206FBA5
:102A700007FC42EA90124FEA80604FEA1C4C0CFBC4
:102A80000BF7D21B03FB0CF761EB07010CFB0EF7F6
:102A9000B0EB074072EB17420CFB08F734BFA2EB18
:102AA0000742B2EB074261EB17414FEA8C554FEA00
:102AB000910704EB9C2406FB07FC4FEA1C4C0CFB23
:102AC0000BF7B0EBC74072EB573203FB0CF734BF88
:102AD000A2EBC742B2EBC74261EB57310CFB0EF7DA
:102AE000B0EBC70072EB57720CFB08F734BFA2EBD8
:102AF000C702B2EBC70261EB577115EB4C254FEAE9
:102B0000816141EA92114FEA82624FEAD13742EA8B
:102B1000901206FB07FC44F100044FEA80604FEA84
:102B20001C4C0CFB0BF7D21B03FB0CF761EB0701F2
:102B30000CFB0EF7B0EB074072EB17420CFB08F7EB
:102B400034BFA2EB0742B2EB074261EB174115EB32
:102B50001C154FEA813141EA92414FEA823242EA42
:102B600090424FEA80304FEA0C7644F1000448EA84
:102B700003434EEA0B484FF0000EB2EB080C71EB2A
:102B8000030724BF624639464EEB0E0E4FF0000B92
:102B90000018524149414BEB0B0BB2EB080C71EBA7
:102BA00003077BF1000B24BF624639464EEB0E0E45
:102BB0004FF0000B0018524149414BEB0B0BB2EBAD
:102BC000080C71EB03077BF1000B24BF624639460A
:102BD0004EEB0E0E51EA020718BF46F0010616EB47
:102BE0000E7655F1000254F1000103D5BDE88901CC
:102BF000BDE80088BDE88901BDE80048B61952412A
:102C000041EB0101A3F10103704780807F7E7D7C51
:102C10007B7A7978777676757473727171706F6E6E
:102C20006E6D6C6C6B6A6A69686867666665646419
:102C3000636362616160605F5F5E5E5D5D5C5C5BA3
:102C40005B5A5A5959585857575656555555545412
:102C5000535352525251515050504F4F4F4E4E4D70
:102C60004D4D4C4C4C4B4B4B4A4A4A4949494848BC
:102C700048474747474646464545454444444443FC
:102C800043434342424242414141000046EA064634
:102C9000A3F570534FEA164646EA42564FEAD2224F
:102CA00042EA415210B54FEAD121A3F1010300F0ED
:102CB0002FF820F0004000F1020C00F0004701EB7B
:102CC00000501146BCF5006F40EA070000D210BD6D
:102CD000BAF1000F0AD01CB503B44FF004004FF056
:102CE00004014FF000000FBCBDE810404FF00001A0
:102CF000BBF1010FB9BF04484FF0FF310348002179
:102D000040EA070010BD00BFFFFFEF7F0000F07F2B
:102D1000002B9C4630D477002BD01CB54FEA3707E8
:102D200003B44FF010004FF01001BAF1000F06D0BD
:102D3000BCF1000FDCBF40F0080040F008014FF08C
:102D400000000FBCBDE810400BF1010BBBF1010FFF
:102D500008BF5FEA170722BF12F1010211F101015A
:102D60004FF0004143F1000300F0004043EA00004F
:102D70007047F9D35708D0E746EA064613F1400FEB
:102D80004FEA16461FDD13F1200FDFBF16430A4638
:102D9000002120335B42BED0C3F1200746EA06463D
:102DA00002FA07F74FEA164646EA0706C3F120077C
:102DB00022FA03F201FA07F721FA03F14FF00003B8
:102DC00042EA0702A7E746EA020646EA06464FEA53
:102DD000164646EA0106BCBF46EA0646360C4FF0E8
:102DE00000034FF000024FF0000194E72DE9804C02
:102DF0009A46934670B491E8380007C831EA400C0F
:102E000048BF34EA430C03D5FFF7A3FDFFF780FF6B
:102E1000F0BCBDE8008C2DE9804C9A46934670B416
:102E200091E8380007C831EA400C48BF34EA430C47
:102E300003D5FFF78EFDFFF729FFF0BCBDE8008C3E
:102E40002DE9804C9A46934670B491E8380007C843
:102E500010F0804F08BF13F0804F03D100F01AF834
:102E6000FFF756FFF0BCBDE8008C2DE9804C9A4678
:102E7000934670B491E8380007C810F0804F08BF3F
:102E800013F0804F03D100F005F8FFF7FFFEF0BC10
:102E9000BDE8008C20F07F4780EA030023F07F4CE0
:102EA00007EB0C03A3F57C5300F00040A3F1FE03F5
:102EB00092F0000F00F0B38095F0000F00F07780E3
:102EC0002DE901494FEA11404FEA144621EA004832
:102ED00000FB06FC24EA064708FB06F607FB08F899
:102EE00000FB07F718EB06484CEB164C4FEA124B69
:102EF00018EB07484FEA15464CEB174022EA0B4EF9
:102F00000BFB06FC25EA06470EFB06F607FB0EFE4A
:102F10000BFB07F71EEB064E4CEB164C4FF0000672
:102F20001EEB074E4CEB174B18EB0B0840F1000063
:102F300018EB0E0B58EB000840F100008F1A4FF011
:102F400000013CBFC943661B14BFB5EB040C002154
:102F50003CBFC943F61B4FEA17444EEA8E0E27EAE0
:102F600004454FEA1C4704FB07622CEA074C05FBAB
:102F700007F70CFB05F604FB0CFC16EB074642EBCF
:102F8000174216EB0C4642EB1C421BEB060658EBB5
:102F90000202414146EA9E0601D5BDE80189B61903
:102FA000524141EB0101A3F10103BDE801894FEA60
:102FB00014454FEA114724EA054621EA074C05FB70
:102FC00007F406FB07F70CFB06F105FB0CFC11EB05
:102FD000074144EB17444FEA124711EB0C4144EB15
:102FE0001C4422EA074C05FB07F206FB07F70CFB23
:102FF00006F605FB0CFC16EB074642EB174216EBF8
:103000000C4642EB1C456A1854F1000148BF70475A
:10301000B619524141EB0101A3F10103704795F04C
:10302000000F37D04FEA11424FEA144721EA024617
:1030300024EA074C02FB07F106FB07F70CFB06F43A
:1030400002FB0CFC14EB074441EB17414FEA154718
:1030500014EB0C4441EB1C4125EA074C02FB07F53D
:1030600006FB07F70CFB06F602FB0CFC16EB07460B
:1030700045EB174516EB0C4645EB1C42121951F176
:10308000000148BF7047B619524141EB0101A3F15D
:10309000010370474FEA14454FEA114724EA0546F9
:1030A00021EA074C05FB07F106FB07F70CFB06F2CC
:1030B0004FF0000605FB0CFC12EB074241EB1741F9
:1030C00012EB0C4251EB1C4148BF7047921841EB88
:1030D0000101A3F1010370477CB531480024CDE91B
:1030E000004023464FF480722EA1314808F08AFE3A
:1030F0002B4800232038CDE9004080222DA1304804
:1031000008F080FE264803241C38CDE900404FF427
:10311000007500232A462BA12D4808F073FE204895
:1031200000231838CDE90040AA002AA12A4808F057
:1031300069FE1B4902201439CDE9000100232A460B
:1031400026A12A4808F05EFE154800230838CDE97C
:1031500000406A0026A1294808F054FE10480124C6
:103160001038CDE9004000232A4625A1274808F061
:1031700049FE0B4800230C38CDE900402A4624A123
:10318000254808F03FFE06490420091FCDE900014B
:103190000023802221A1244808F034FE7CBD0000D9
:1031A000200000207648616E645368616B65000002
:1031B00029AD0108765461736B4C65640000000012
:1031C000D5AD010876544D54486F7374000000006B
:1031D0004DAE0108636D6400ADAE010876546173B5
:1031E0006B496E66726172656400000081AD010812
:1031F000765461736B5273343835000071B1010835
:10320000765461736B52656164657200BDB00108EC
:10321000765461736B5152002DB00108765461737E
:103220006B53746172740000D1B101080FB410B512
:10323000B4B037ABC9216846369AFDF70BF90A4C92
:103240004FF0FF31206808F0E7FC694607A0FDF762
:103250001BF900231A461946206808F031FB34B0E8
:1032600010BC5DF814FB0000400000202573000036
:10327000FEE7000070B5094DFF231A4605F580767C
:1032800005E010F8014B54402A5D5A40335D491E59
:1032900089B2F6D242EA032070BD0000CECB01080D
:1032A00048B1012809D0022809D0032809D00428F0
:1032B00009D0002070470548704705487047054809
:1032C0007047054870470548704700005056012078
:1032D000785E0120A0620120C8640120F06C01200A
:1032E00038B525208DF8000001248DF8014000201C
:1032F0008DF802008DF80340684600F0EFFA2620B2
:103300008DF800008DF802408DF80340684600F00B
:10331000E5FA27208DF8000002208DF802008DF8D4
:103320000340684600F0DAFA34208DF800000320EC
:103330008DF802008DF80340684600F0CFFA352082
:103340008DF8000004208DF802008DF803406846D7
:1033500000F0C4FA38BD704770B54FF48065284658
:1033600000F02EF8124C60B11E2003F0DBFA294663
:10337000204600F0CBF808B901F0C8F8284600F064
:1033800019F84FF40065284600F01AF800280ED00E
:103390001E2003F0C7FA2946204600F0B7F808B906
:1033A00001F0ECF82846BDE8704000F003B870BDAD
:1033B000000C02400149086070470000143C0140C5
:1033C000034A0146002012680A4200D001207047DB
:1033D000143C014030B51A4A8379016853B313682D
:1033E0008B431360111D0B680468A3430B600179C4
:1033F00011440B68046823430B60114B08331968B0
:103400000468A14319601C1D21680568A943216057
:103410004179102905D011440A68006802430A6006
:1034200030BD1968026811431960216800680143C2
:10343000216030BD0079104402688A43026030BDCB
:10344000003C014001490860704700000C3C02400C
:1034500005480068002805DA034804490C38016073
:103460000349016070470000103C0240230167459A
:10347000AB89EFCDF0B5002201274FF0030C0B68AC
:1034800007FA02F52B40AB422CD1066853000CFA28
:1034900003F4A64306600E79D0F800E09E4046EAA9
:1034A0000E0606600E79012E01D0022E12D186681A
:1034B000A64386604E79D0F808E09E4046EA0E06A4
:1034C00086604668AE43466045688E799640B6B2DF
:1034D00035434560C568A543C560CC799C40C36849
:1034E0001C43C460521C102AC9D3F0BD4B07DB0E2D
:1034F0009A40C90810B500EB8100016A0F249C4076
:10350000A1430162016A1143016210BD024600201D
:1035100012690A4200D0012070474183704701833D
:1035200070470000114906A300201A5C8A800A88AF
:103530005206FCD5401CC0B22A28F6D3FEE7000094
:103540000D0A456E74657220486172644661756C3F
:10355000745F48616E646C65722C20537973746576
:103560006D2048616C742E0D0A00000000100140AF
:1035700002494CF6CC400860704700000030004023
:10358000AFF3008002494AF6AA20086070470000A5
:1035900000300040014948607047000000300040A2
:1035A0000149886070470000003000400149086010
:1035B00070470000003000402DE9F04F87B0012136
:1035C000022000F0C7F90121102000F0E7F90722DE
:1035D0000621B848FFF78AFF07221146B548FFF7D2
:1035E00085FF00248DF8064001268DF8076002252E
:1035F00040208DF8045000908DF805506946AD4884
:10360000FFF738FF802000908DF804506946A948E4
:10361000FFF730FFDFF8A0924FF41648ADF80C40EA
:10362000ADF810400C27CDF80880ADF80E40ADF88D
:103630001440ADF8127002A9484600F0A1FD012225
:1036400040F22551484600F082FD0121484600F035
:103650004EFD4021484600F047FD0121084600F09C
:1036600079F90121480400F081F9DFF850A207221E
:1036700002215046FFF73AFF072203215046FFF789
:1036800035FF8DF806408DF807608DF804504FF037
:103690000409CDF800908DF8055069465046FFF7B3
:1036A000E9FE08208DF8045000908DF80550694619
:1036B0005046FFF7DFFECDF80880DFF80482ADF852
:1036C0000C40ADF81040ADF80E40ADF81440ADF828
:1036D000127002A9404600F053FD012240F225512C
:1036E000404600F034FD0121404600F000FD40213D
:1036F000404600F0F9FC0121082000F02BF90121DF
:10370000880400F033F9072208216E48FFF7EEFE27
:10371000072209216B48FFF7E9FE8DF806408DF876
:103720000760E8018DF8045000908DF80550694657
:103730006448FFF79FFE280200908DF80450694608
:103740006048FFF797FE4FF41650DFF87C81029037
:10375000ADF80C40ADF81040ADF80E40ADF8144097
:10376000ADF8127002A9404600F00AFD012240F2B5
:103770002551404600F0EBFC0121404600F0B7FC2B
:103780004021404600F0B0FC0121042000F0E2F8A6
:103790000121C80400F0EAF8DFF830B108220A215C
:1037A0005846FFF7A3FE08220B215846FFF79EFE5E
:1037B0008DF806408DF8076068028DF8045000907F
:1037C0008DF8055069465846FFF754FEA802009050
:1037D0008DF8045069465846FFF74CFEDFF8F0A01C
:1037E0004FF4E138ADF80C40ADF81040CDF808804A
:1037F000ADF80E40ADF81440ADF8127002A9504675
:1038000000F0BEFC012240F22551504600F09FFC22
:103810000121504600F06BFC4021504600F064FC52
:1038200001210C2000F096F80121080500F09EF817
:1038300008220C215846FFF759FE08220221214890
:10384000FFF754FE8DF806408DF80760E8028DF80A
:10385000045000908DF8055069465846FFF70AFE5F
:103860008DF8045069461748CDF80090FFF702FE26
:10387000ADF80C40ADF80E40ADF81040ADF8144076
:10388000144CCDF80880ADF8127002A9204600F063
:1038900077FC012240F22551204600F058FC01211E
:1038A000204600F024FC4021204600F01DFC07B01B
:1038B000BDE8F08F0004024000100140000002400B
:1038C00000440040000C0240004800400008024054
:1038D000004C004000500040FEE7704730B50F2319
:1038E000C27801780125FAB1144A126801F1E02189
:1038F00002F4E062C2F5E062C2F30722C2F10404FE
:10390000D3404278A24084781C401443220181F8BD
:103910000024007800F01F018D404009800000F174
:10392000E020C0F8005130BD01F01F00854048097B
:10393000800000F1E020C0F8805130BD0CED00E0C7
:103940000249084302490860704700000000FA0578
:103950000CED00E0044A0029116801D0014300E0A9
:10396000814311607047000030380240044A00294A
:10397000116801D0014300E08143116070470000ED
:1039800040380240044A0029116801D0014300E098
:10399000814311607047000020380240044A00292A
:1039A000116801D0014300E08143116070470000BD
:1039B00044380240044A0029116801D0014300E064
:1039C00081431160704700002438024002480168BA
:1039D00041F08071016070477438024070B5204B2F
:1039E0001968204C11F00C0104D06610042903D092
:1039F000082903D004601BE0066019E0184A121F72
:103A00001168C1F38055116801F03F0115B1B6FB93
:103A1000F1F101E0B4FBF1F114681268C4F3881409
:103A20006143C2F30142521C5200B1FBF2F101604A
:103A300019680F2202EA11110B4A545C0168E14037
:103A400041601C68072505EA9424145D21FA04F4FA
:103A500084601B6805EA5333D25CD140C16070BDFD
:103A6000083802400024F400C8000020024600206C
:103A7000510901290BD002290CD00849096802F02C
:103A80001F02012393400B4200D0012070470349DD
:103A90007439F3E70149091FF0E700007438024068
:103AA0000149086070470000800E47421CB50121A3
:103AB0004020FFF74FFF01208DF8040000218DF812
:103AC00006108DF8070003218DF805100090694657
:103AD0000148FFF7CFFC1CBD0018024070472DE9DC
:103AE000F04116460F460024FFF7DAFB051E0ED004
:103AF000688BB04208D2688BC6B205E039192846F7
:103B000000F09CFB641CE4B2B442F7D33046BDE83D
:103B1000F081000001490120088070471818024018
:103B200002F078BB01490120088070471A18024052
:103B30003EB50024009401940CA0029403F0E6F832
:103B4000FCF77CFE054603460BA27C210FA002F089
:103B500093FC6A1C14A16846FCF7A2FC694603A00A
:103B600003F062FA00B1062420463EBD626F6F7416
:103B70005F74696D65730000626F6F745F74696D67
:103B80006573203D20256C640D0A00002E2E5C33E9
:103B90004D6964646C654C617965725C696E695CE1
:103BA000696E692E63000000256C6400002901889D
:103BB00002D041F4005101E021F40051018070472E
:103BC0000029018802D041F0400101E021F04001CC
:103BD000018070471A4910B5884202D1012184142E
:103BE00024E01849884202D10121041404E0164956
:103BF00088420AD10121C4132046FFF7C3FE2046A4
:103C0000BDE810400021FFF7BDBE1049884202D137
:103C1000012144140AE00E49884202D101210C0519
:103C200004E00C4988420AD101214C052046FFF7E7
:103C3000C1FE2046BDE810400021FFF7BBBE10BD0D
:103C40000030014000380040003C0040003401409A
:103C500000500140005401400246002012890A42EF
:103C600000D001207047808970478181704730B54E
:103C700002884C8802F441530A88CD8822438C88FC
:103C80002C4322430C8922434C8922438C892243B2
:103C9000CC8922431A430280828B22F40062828301
:103CA000098A018230BD10B5FFF7D2FBBDE8104094
:103CB000F320FFF7C7BB000010B58A0721F003040B
:103CC0000849120F21440F23D1F8084893409C4320
:103CD000C1F80848D1F8083890400343C1F80838C3
:103CE00010BD000000300140F0B5D1B00D460446D3
:103CF000002780216846FCF7E6FE802120A8FCF71B
:103D0000E2FE802120A8FCF7DEFE80216846FCF759
:103D1000DAFE442140A8FCF7D6FE022000268DF8EA
:103D200000008DF800618DF80141294620A8FCF7BC
:103D30009BFD20A940A803F0EFFF98B3C01CC4B2BC
:103D40006D46E21E20A9E81CFCF71CFE0320285546
:103D5000641CE4B28DF801608DF80240214668468B
:103D6000FFF788FA010A2955641CE1B26854491C1E
:103D7000CDB22A4669460DA002F0A8FB0F4C711E79
:103D8000606807F049FF20B12A466946002002F02A
:103D900041FA00231A461946606807F091FD38463B
:103DA00051B0F0BDFFE70120FAE7000073656E64D3
:103DB0005F746F5F686F7374000000003C00002048
:103DC0000CB50022274900920192086840F4803027
:103DD00008604FF4A043086800F400300190009898
:103DE000401C0090019810B900989842F3D10868DF
:103DF000800334D5012001901A484030026842F017
:103E0000805202601848026842F44042026015483D
:103E1000083002680260026842F4004202600268F0
:103E200042F4A0520260031F104A1A600A6842F06E
:103E300080720A600A689201FCD50D4940F2057251
:103E40000A60016821F003010160016841F002018C
:103E500001600168C1F381010229FAD10CBD019210
:103E60000CBD0000003802400070004008544007BC
:103E7000003C02404FF0E0210428086903D020F004
:103E800004000861704740F00400FAE710B507F03D
:103E9000E5FF012803D0BDE8104007F07BBC10BD52
:103EA000114810B5016841F4700101600F480168C4
:103EB00041F0010101600D4A0021083211600268E1
:103EC0000B4B1A400260031D0A4A1A60026822F472
:103ED0008022026005480C300160FFF771FF024943
:103EE00005488039086010BD88ED00E000380240C8
:103EF000FFFFF6FE103000240000010810B50EA1EF
:103F00000FA003F091F8002814D110A111A003F024
:103F10008BF813A26B2115A002F0AEFABFF34F8FFE
:103F200019480168194A01F4E06111430160BFF3C7
:103F30004F8FFEE710BD0000353035300000000027
:103F400057535049464C41534800000036303630F4
:103F500000000000574D4355464C415348000000B7
:103F60006A756D70206961700D0A00002E2E5C3339
:103F70004D6964646C654C617965725C696E695CFD
:103F8000696E692E630000000CED00E00400FA0584
:103F900010B50E4C0121204600F035F8002813D052
:103FA0000B490868401C086001F0CCF90949087900
:103FB00020B1087B10B1087B401E08732046BDE885
:103FC0001040012100F012B810BD000000100040A8
:103FD000A4000020405601200029018802D041F0B1
:103FE000800101E021F0800101807047C943018216
:103FF00070470029018802D041F0010101E021F061
:1040000001010180704702460020138A92890B4209
:1040100002EA010202D0002A00D001207047002AE3
:10402000828901D00A4300E08A4382817047000000
:1040300030B50288164C174DA0420DD0A8420BD0C7
:10404000B0F1804F08D0144B984205D0134B9842E2
:1040500002D0134B984203D122F070034A881A43CE
:10406000104B984206D0104B984203D022F4407374
:104070000A891A4302804A68C2620A880285A042FD
:1040800001D0A84201D1897A01860121818230BD07
:10409000000001400004014000040040000800400E
:1040A000000C00400010004000140040014800F0E7
:1040B000E6B80000C8640120014800F0E0B8000044
:1040C000F06C0120014800F0DAB8000050560120E1
:1040D000014800F0D4B80000785E0120014800F0EB
:1040E000CEB80000A0620120C943018070470029BA
:1040F000818902D041F4005101E021F40051818115
:1041000070470246002012880A4200D00120704702
:1041100070B501F01F0501260024C1F3421306FA11
:1041200005F2012B0FD0022B0FD0838A4FEA112109
:104130000088134206FA01F600EA060001D000B139
:104140000124204670BD8389F0E7038AEEE710B5AD
:10415000C1F3421301F01F040121A140012B07D03C
:10416000022B07D01430002A026805D00A4304E06D
:104170000C30F8E71030F6E78A43026010BD00000B
:104180007FB50446008A0D46C98820F4405001439B
:104190002182A08941F20C618843A9882A891143B0
:1041A0006A8902431143A181A08A20F44071A88941
:1041B0000843A0826846FFF711FC1A48844202D0E7
:1041C0001948844201D1039800E00298A1890904AA
:1041D00000EBC00101EB0010296801D5490000E0A7
:1041E0008900B0FBF1F06422B0FBF2F109010B0988
:1041F0006FF018056B4300EB8300A3891D044FF09B
:10420000320306D503EBC000B0FBF2F000F007006C
:1042100005E003EB0010B0FBF2F000F00F000843E4
:1042200020817FBD00100140001401408088C0F350
:1042300008007047C1F308018180704770B50E46D1
:10424000044606F01DFC658B06F03AFCADB1218BEF
:10425000A068405C307006F013FC208B401C80B2DC
:104260002083E189884201D300202083608B401E97
:10427000608306F025FC012070BD002070BD2DE993
:10428000F0410446006840F22551FFF741FF002548
:10429000B8B12068FFF7CAFFE28AA168C0B28854AB
:1042A000E18A491C8AB2E282E1898A4200D3E5822E
:1042B000628B8A4202D2618B491C6183616A01B1BF
:1042C000884740F2277739462068FFF721FF40F200
:1042D000266690B1A08AC0B9002239462068FFF74F
:1042E00036FF31462068BDE8F0410122FFF72FBFBD
:1042F000A08A401EA082BDE8F08131462068FFF709
:1043000007FF0028F7D0A08A70B1618A6068415C1D
:104310002068FFF78FFF608A401C80B26082A1890D
:104320008842E5D36582E3E7002231462068FFF743
:104330000EFF206A0028DED0BDE8F04100470000F3
:10434000394910B53748086001F12800486000F588
:10435000806088604FF480628A81CA810020088270
:104360004882C882088348838882C861086248629C
:1043700001F628012D4B0B6001F128034B6001F57C
:104380000A738B6053108B81CB8108824882C8826C
:10439000088348838882C8610862486201F58561A4
:1043A000234C0C6001F128044C6001F594748C607E
:1043B00094108C81CC8108824882C882088348830B
:1043C0008882C8610862486201F50A71194C0C6064
:1043D00001F128044C6001F585648C608A81CA81F2
:1043E00008824882C882088348838882C86108623C
:1043F000486201F62801104A0A6001F128024A6069
:1044000001F50A728A608B81CB8108824882C8825A
:104410000883488388820948C861094808620948B6
:10442000486210BD00100140505601200044004079
:1044300000480040004C004000500040153B01087F
:10444000253B0108DD3A0108FEE700002DE9F047B1
:104450002C4C2078002626702B4D1A2805D02228B7
:1044600043D1A168090E297042E02E70A168C1F302
:104470004009A1684FF00C088A0800234FF0010C96
:1044800019461CEA020F01D05B1CDBB2491C520822
:10449000C9B24145F5D313F0010F4FF0010A01D025
:1044A000314600E0514649451FD1A1688908A16005
:1044B000A1684FF00C080A0B00234FF0010C1946BD
:1044C0001CEA020F01D05B1CDBB2491C5208C9B2C6
:1044D0004145F5D313F0010F01D0514600E03146BC
:1044E000094A521E1278914202D00020BDE8F0879E
:1044F000A168090C6970A168090AA970A168E9702E
:10450000A660F3E740560120BD00002019480021B5
:1045100081700422027303780122222B037802D2D5
:104520005B1C037004E0222B06D001704170017106
:104530000378012B02D006E04270F8E78160027137
:1045400081780D4A11700178012912D90178222948
:104550000FD281780029816802D041F0010101E089
:1045600021F0010181600178212902D2816849008E
:104570008160704740560120BC000020194801228C
:1045800082700421017303780021222B037802D268
:104590005B1C037004E0222B06D001704170017196
:1045A0000378012B02D006E04270F8E781600271C7
:1045B00081780D4A11700178012912D901782229D8
:1045C0000FD281780029816802D041F0010101E019
:1045D00021F0010181600178212902D2816849001E
:1045E0008160704740560120BC00002003B4019850
:1045F0004100009850EAC12018BF04204A0D18BF9E
:1046000040F0010040F2FF72B2EB515F08BF40F092
:104610000200012808BF052002B07047000000001A
:1046200030B52DED048B81B0B0EE408AF0EE608A9B
:104630006A4651EC180B02F04BFE00989FED329B3E
:104640007E300090002821DC53EC192B51EC180B24
:1046500007F01CFF1AD0002140F608004FF00000C0
:10466000044651EC180B07F023FE08EE100A40F642
:10467000080004EA00014FF00000B5EEC08AF1EE38
:1046800010FA04BF0220FDF7A1FE2DE00098FF28DC
:1046900030DB002108464FF0000000F4400553ECE9
:1046A000192B51EC180B08F0D7F88CBF002401240B
:1046B0000220FDF78BFE9FED168A4DB1002C0CBF3A
:1046C0004FF400004FF48000A84218BF9FED118AFC
:1046D000042108464FF00000002C01BFB1EE480A4B
:1046E00001B0BDEC048B30BDB0EE480A01B0BDECAA
:1046F000048B30BD51EC180B07F0DAFD01B000EE71
:10470000100ABDEC048B30BD00000000000000006A
:104710000000807FFFFF7F7F2DE9F0412DED020B30
:104720009FED3D0B2DED028B9FED3D8BDDE902549E
:10473000C4F30A50A0F2FF36142E37DA002E18DA2E
:1047400053EC102B9DED020B51EC100B07F0E2FD2A
:1047500053EC182B08F080F857D2002CBCBF4FF058
:104760000044002551DB54EA050018BF2E4C1BD134
:104770004BE02E4820FA06F704EA070028431FD032
:1047800053EC102B9DED020B51EC100B07F0C2FD0A
:1047900053EC182B08F060F837D2002C03DD4FF4EF
:1047A0008010F0400444BC4300252EE0332E07DC8B
:1047B000A6F114004FF0FF3121FA00F73D4206D177
:1047C0009DED020BBDEC028B02B0BDE8F08153EC15
:1047D000102B9DED020B51EC100B08F073F853EC0D
:1047E000182B08F039F810D2002C0DDD142E08BF5C
:1047F000641C09D0C6F13400012101FA00F02844FC
:10480000A84238BF641C0546BD43CDE902549DED66
:10481000020BD7E7000000009C7500883CE4377E5F
:1048200000000000000000000000F03FFFFF0F004C
:1048300030B540F2FF742DED048BF0EE608A18EE77
:10484000901A85B0B0EE408A9FED2B9B05468DED0A
:10485000008B34EA115147D053EC192B51EC180B53
:1048600007F014FE40D02A4651EC180B08F063F90B
:1048700041EC180B18EE900A8DED008B34EA1050C5
:104880001CD053EC192B51EC180B07F0FFFD2BD16A
:104890000220FDF79BFD00F057F810EE901A18EE7D
:1048A000900A8DED020B8DED008B61F31E000390DD
:1048B0009DED020B05B0BDEC048B30BD0220FDF771
:1048C00085FD00F031F810EE901A18EE900A8DED8B
:1048D000020B8DED008B61F31E0003909DED020B2A
:1048E00005B0BDEC048B30BD05B0B0EE480AF0EE6B
:1048F000680ABDEC048B30BD000000000000000021
:1049000000B583B09FED060B0A4601468DED000B06
:104910006846FCF7FBFF9DED000B03B000BD0000F7
:1049200000000000000000009FED050B10B553ECE7
:10493000102B51EC100B07F091FE41EC100B10BD49
:1049400000000000000000709FED050B10B553EC57
:10495000102B51EC100B07F081FE41EC100B10BD39
:10496000000000000000001010B5044691ED000B9F
:10497000FFF756FE84ED000A10BD10B5044690ED19
:10498000000B0846FFF754FF84ED000B10BD3038D4
:104990000A2801D2012070470020704770470000AC
:1049A0002DE9FE4F5FEA00084E481C4616460F46AA
:1049B00008F120094FF0010A0ED098F834100029B0
:1049C00013D0D8F81000B919814217D946A005F0C4
:1049D000D9FC0520BDE8FE8F00904DA34EA240F209
:1049E000B92155A005F0ACFCFEE700905AA34AA2FD
:1049F00040F2BA2150A005F0A3FCFEE7D9F8081058
:104A0000484601B18847F8070CD0204639460123B3
:104A10000090641C7F1C1A46404603F0D7F905003D
:104A200054D1761E0121404605F0D0F905004DD144
:104A3000AD208DF804000DF1040B34E0BAF1000F45
:104A400013D05D466A1C3946404602F03BFF98F899
:104A5000350008B1052200E004222078A854A918E6
:104A6000607848704FF0000A06E020788DF8050065
:104A7000607801228DF80600002000900023D9F80C
:104A80000450484601A9921CA847050003D036A04F
:104A900005F078FC1AE0404606F05EFC050015D1F2
:104AA000A41CB61EBF1C022EC8D20021404605F031
:104AB0008DF905000AD1012E0CD101231A46394681
:104AC0004046009403F082F9050003D000214046DF
:104AD00005F07CF9D9F80C10484601B18847284602
:104AE00078E700006DD001084572726F723A204677
:104AF0006C617368206164647265737320697320EC
:104B00006F7574206F6620626F756E642E0D0A00DB
:104B1000666C617368000000282573292068617342
:104B200020617373657274206661696C65642061CD
:104B3000742025732E0D0A002E2E5C324C6F774C9C
:104B4000617965725C464C4153485C7372635C7377
:104B50006675642E63000000666C6173682D3E69A3
:104B60006E69745F6F6B00004572726F723A204617
:104B70006C617368207772697465205350492063B3
:104B80006F6D6D756E6963617465206572726F72A9
:104B90002E0D0A0019B110B1826812B104E0002094
:104BA0007047816005E0024610680028FBD1116063
:104BB0004A60012070472DE9F0410D4606991F46D5
:104BC00014465FEA000806D02DB124B131B1E06887
:104BD00040F400760BE00020BDE8F081194628463D
:104BE00001F048FA051EF7D0E06820F40076A089AD
:104BF000800503D4206A08B179688847E6602146B9
:104C000040462562BDE8F041FFF7C4BFF8B5144641
:104C10000D46064668460121FF22FBF72AFF224681
:104C20002946304602F0DCF9F8BD0000F3B585B046
:104C3000054600214FF0FF300291CDE903101848DE
:104C4000CDE9000103AB02AA284604F08AFE154E06
:104C50000398012438B1CDE9006404AB06AA02210F
:104C6000284604F07EFE0299B9B10498401C14D184
:104C7000012902D80C4F787840B1CDE9006404AB2B
:104C800006AA0121284604F06CFE06E007A240F2C5
:104C9000DA2112A002F0EAF87C70049807B0F0BDA7
:104CA000B9990108054D0108A401002054726967F3
:104CB000676572206120474320636865636B2061EC
:104CC0006674657220616C6C6F6320454E56206679
:104CD00061696C65642E0D0A000000002E2E5C33A5
:104CE0004D6964646C654C617965725C656173796A
:104CF000666C6173685C7372635C65665F656E7633
:104D00002E63000003785BB1036909688B4207D901
:104D10008178012906D0022902D10449497809B1D4
:104D2000002070474069106001207047A4010020F6
:104D300030B5D40702D00BB1002300E05523002585
:104D400017E00C78612C01D3573C06E0412C01D3CD
:104D5000373C02E0302C02D3303CE4B200E00024C7
:104D6000552B0DD044EA031300F8013B5523491C91
:104D70006D1C9542E5DB552B01D01901017030BD4A
:104D80002346F4E730B50024D50716D0ABB1012493
:104D9000521C12E0E30704D011F8013B03F00F03AB
:104DA00001E00B781B090370092B01D9372500E0BE
:104DB00030252B4400F8013B641C9442EADB30BDF3
:104DC0001CB501212020FEF7C5FD4FF47C7000903A
:104DD00001208DF8040000218DF8061003218DF8C4
:104DE0000510064C8DF8070069462046FEF742FB89
:104DF0004FF45C712046FEF790FB1CBD001402408E
:104E000010B590B0044640216846FBF75CFE0F22C7
:104E100021466846FBF7B6FD9DF800004C2820D1DE
:104E20009DF805004D281CD19DF80A00522818D184
:104E30000D489DF80210C0F89C129DF80410C0F8AF
:104E400098129DF80710C0F8A4129DF80910C0F838
:104E5000A0129DF80C10C0F894129DF80E10C0F826
:104E6000901210B010BD0000008042422DE9FF5F9B
:104E70000025C24E814601950295102130460395CA
:104E8000FEF744FBBE4C0028206A7CD020F00100D5
:104E9000206220213046FEF739FB0028206A73D0BB
:104EA00020F00200206240213046FEF72FFB002850
:104EB000206A6AD020F00400206280213046FEF78C
:104EC00025FB0028206A7DD020F00800AD4F20622D
:104ED00010213846FEF71AFB0028206A73D020F014
:104EE000100020622021B8463846FEF70FFB00284C
:104EF000206A69D020F02000A34F206201213846AB
:104F0000FEF704FB0028206A7ED020F040002062DB
:104F100002213846FEF7FAFA0028206A75D020F000
:104F200080009A4F206280213846FEF7EFFA002871
:104F3000206A6BD020F48070206240213846FEF752
:104F4000E5FA0028206A7DD020F40070206220213C
:104F50003846FEF7DBFA0028206A74D020F480601F
:104F6000206210213846FEF7D1FA0028206A6BD063
:104F700020F40060206208213846FEF7C7FA0028B6
:104F8000206A7DD002E0A9E0ACE0AEE020F48050E1
:104F900020620421BA463846FEF7B8FA0028206A93
:104FA0006FD020F400507A4F20624FF40041384611
:104FB000FEF7ACFA0028206A7ED020F480404FF43F
:104FC000804102E094E096E098E020623846FEF7E7
:104FD0009DFA0028206A70D020F40040206202214F
:104FE00047464046FEF792FA0028206A66D020F431
:104FF0008030206201213846FEF788FA0028206AB6
:105000006FD020F4003002E07CE07EE080E0DFF84A
:105010008481206204214046FEF778FA0028206A45
:105020006FD020F48020206202214046FEF76EFA05
:105030000028206A6FD020F400204FF4007B5946EE
:10504000206202E068E06AE06CE03046FEF75EFA5B
:105050000028206A6FD020F480104FF480782062FE
:1050600041463046FEF752FA0028206A7AD020F4F2
:105070000010206259463846FEF748FA002801E041
:1050800053E055E0206A72D020F48000206241464F
:105090005046FEF73BFA0028206A6BD020F400004F
:1050A0002062010C8DF80410010A8DF805108DF8AE
:1050B00006000295002302E03EE040E042E00622C6
:1050C00001A902A80395FFF75DFE0299C9F8001037
:1050D000BDF80C10A9F80410BDE8FF9F40F00100D6
:1050E000D6E632E040F00200DCE640F00400E3E601
:1050F00040F00800EAE640F01000F2E640F0200040
:10510000FAE626E040F0400001E740F0800008E7C2
:1051100040F4807010E71FE040F4007016E740F4A0
:1051200080601DE740F4006024E740F480502FE7E2
:1051300040F4005037E712E040F480403FE740F48D
:1051400000404BE740F4803053E740F400305AE72A
:1051500008E040F4802066E740F400206DE740F46A
:1051600080107AE740F4001083E700E002E040F4AA
:1051700080008BE740F4000092E70000000002404E
:105180008000002000080240000402400018024095
:10519000000C02400014024010B54FF44070FEF7BE
:1051A000CFFBA82001F086FB00F090F800F030F86B
:1051B00000F03AF8FFF704FE00F028F9FEF773FD5F
:1051C00001F04AFC00F060F9BDE8104000F07AB947
:1051D00010B504467D20FEF749FC08B1FEF7F6FB4A
:1051E0000120FEF75DFC6120FEF740FC0028FAD0AC
:1051F00045F25550FEF7DAF90320FEF7CBF9A0B2DD
:10520000FEF7CEF9FEF7BEF9BDE81040FEF7B0B9E3
:1052100010B5FFF795F8FEF7CFF9FEF747FCBDE8AC
:105220001040FEF75DB800002DE9FC5F012132203F
:10523000FEF790FB01248DF8044000258DF8065000
:105240000326DFF87CB04FF480478DF805600097A7
:105250008DF8074069465846FEF70CF98DF8044072
:105260008DF80650DFF85CA04FF440688DF80560BB
:10527000CDF800808DF8074069465046FEF7FAF8F1
:105280008DF804408DF806508DF805608DF80740C4
:105290000D4C4FF40069CDF8009069462046FEF7AA
:1052A000E9F839465846FEF73AF941465046FEF7C6
:1052B00036F949462046FEF732F9BDE8FC9F00006A
:1052C0000014024000100240000402407FB501219A
:1052D0001020FEF74BFB1848184900240068184DB1
:1052E0004008B0FBF1F0401E01906320ADF80000D3
:1052F000ADF80240ADF8084069462846FEF798FE32
:1053000001212846FEF768FE012211462846FEF7D5
:1053100086FE01212846FEF76CFE36208DF80C0033
:1053200002208DF80D008DF80E4001208DF80F0041
:1053300003A8FEF7D3FA7FBD28000020400D03002C
:10534000001000400D48416811B14168491E41609C
:10535000816811B18168491E8160C16811B1C1685D
:10536000491EC160016911B10169491E01614169AC
:10537000002902D04169491E41617047A400002004
:1053800070B52048002402790421002A027B2546BA
:105390000DD082B9057102781A2A05D00278222A26
:1053A00002D04570057005E00121417003E012B99B
:1053B000057045700173417809B34570FFF746F8F1
:1053C00001461148222902D01A290CD017E0017891
:1053D000427844EA016141EA02418278C47841EAB4
:1053E00002210C4307E04178827844EA0143C47803
:1053F00043EA02231C43057045708570C570204642
:1054000070BD000040560120BD00002070B586B080
:1054100001210820FEF79EFA01258DF80750032090
:105420008DF805004FF44066002400968DF8044086
:1054300069461448FEF71EF801218803FEF7AEFA0C
:105440000A210320FEF738FC0B210320FEF734FC71
:105450008DF80C400C208DF80D0002968DF80E5042
:1054600002A8FDF7B7FF28208DF810008DF8114035
:105470008DF812408DF8135004A8FEF72FFA06B0ED
:1054800070BD0000000C02401CB501211020FEF789
:1054900061FA1020009001208DF8040000208DF8A2
:1054A000060003218DF80510054C8DF807006946AC
:1054B0002046FDF7DFFF10212046FEF730F81CBD27
:1054C000001002402DE9FC4101216F20FEF742FA55
:1054D000F020002400908DF8044002208DF8050093
:1054E000154E01258DF8075069463046FDF7C2FF7D
:1054F0003020124F00908DF804408DF80750694617
:105500003846FDF7B7FF8DF8044003200C4C00909F
:105510008DF8075069462046FDF7ACFFF021304674
:10552000FDF7FDFF30213846FDF7F9FF0321204646
:10553000FDF7F5FFBDE8FC810000024000080240D5
:10554000000402402DE9F05FF748002401250078AF
:10555000DFF8D893F64FDFF8DCA3DFF8DC83DFF861
:10556000DCB3002871D01021F548FDF7CFFF0028EB
:105570006CD0F34E20213046FDF7C8FF002865D0DF
:1055800040213046FDF7C2FF00285FD08021304621
:10559000FDF7BCFF002859D0102146464046FDF7D4
:1055A000B5FF002852D02021B0463046FDF7AEFFAF
:1055B00000287BD001214E464846FDF7A7FF002872
:1055C00074D002213046FDF7A1FF48B100268021AA
:1055D0003846FDF79BFF28B10020064366D103E063
:1055E0000126F4E70120F8E740213846FDF78EFF59
:1055F00000285BD020213846FDF788FF30B310210A
:105600003846FDF783FF08B308213846FDF77EFFD3
:10561000E0B104213846FDF779FFB8B14FF40041FD
:1056200056465046FDF772FF80B14FF48041304638
:10563000FDF76CFF58B1002602214046FDF766FFDA
:1056400038B10020064331D105E09EE02EE001266E
:10565000F2E70120F6E701214046FDF757FF28B3A6
:1056600004215E465846FDF751FFF8B1022130464D
:10567000FDF74CFFD0B1B24E4FF400713046FDF74C
:1056800045FF98B1B1153046FDF740FF70B1711577
:105690004046FDF73BFF48B1B1153846FDF736FFF0
:1056A00020B1A148007800286FD07BE3052001F0ED
:1056B0001DF99D4E10213470A14C2046FDF726FFA8
:1056C00008B9707828B120212046FDF71FFF28B1C6
:1056D00006E07570F06940F001006BE3B07828B126
:1056E00040212046FDF712FF28B106E0B570F069B1
:1056F00040F002005EE3F07828B180219048FDF789
:1057000005FF28B106E0F570F06940F0040051E3B0
:10571000307930B1102144464046FDF7F7FE28B1FC
:1057200006E03571F06940F0080043E3707928B174
:1057300020212046FDF7EAFE28B106E07571F069E8
:1057400040F0100036E3B07928B101214846FDF75A
:10575000DDFE28B106E0B571F06940F0200029E3D4
:10576000F07928B102214846FDF7D0FE28B106E0C5
:10577000F571F06940F040001CE3307A30B18021CF
:105780003846FDF7C3FE30B107E0E8E03572F06956
:1057900040F080000EE3707A28B140213846FDF7D2
:1057A000B5FE28B106E07572F06940F4807001E33F
:1057B000B07A28B120213846FDF7A8FE28B106E0CE
:1057C000B572F06940F40070F4E2F07A28B110216B
:1057D0003846FDF79BFE28B106E0F572F06940F40B
:1057E0008060E7E2307B28B108213846FDF78EFE65
:1057F00028B106E03573F06940F40060DAE2707BAE
:1058000028B104214A48FDF781FE28B106E07573EE
:10581000F06940F48050CDE2B07B38B14FF40041E4
:1058200057465046FDF772FE28B106E0B573F069A1
:1058300040F40050BEE2F07B30B14FF48041384676
:10584000FDF764FE28B106E0F573F06940F480408E
:10585000B0E2307C28B102212046FDF757FE28B186
:1058600006E03574F06940F40040A3E2707C30B18A
:105870000121A1462046FDF749FE28B106E07574D6
:10588000F06940F4803095E2B07C30B104215C4690
:105890005846FDF73BFE28B106E0B574F06940F4C8
:1058A000003087E2F07C28B102212046FDF72EFE71
:1058B00028B106E0F574F06940F480207AE2307D8A
:1058C00040B11F4C4FF4007841462046FDF71EFEC4
:1058D00028B106E03575F06940F400206AE2707D79
:1058E00038B14FF4807739462046FDF70FFE28B1D6
:1058F00006E07575F06940F480105BE2B07D28B178
:1059000041464846FDF702FE28B106E0B575F0694C
:1059100040F400104EE2F07DA0B139460448FDF796
:10592000F5FDA0B13EE2000080000020000402402E
:1059300000180240000C024000080240001402401F
:1059400000000240F575F06940F4800032E2307EDC
:105950000028E7D13576F06940F400002AE21021F2
:10596000FA48FDF7D3FD012872D0F84E20213046C9
:10597000FDF7CCFD01286BD040213046FDF7C6FD78
:10598000012865D080213046FDF7C0FD01285FD099
:10599000102146464046FDF7B9FD012858D0202188
:1059A000B0463046FDF7B2FD012851D001214E46E8
:1059B0004846FDF7ABFD01287AD002213046FDF7BD
:1059C000A5FD01280AD0002680213846FDF79EFD5E
:1059D000012800D0002006436AD101E00126F3E748
:1059E00040213846FDF792FD012861D0202138463C
:1059F000FDF78CFD01285BD010213846FDF786FDB0
:105A0000012855D008213846FDF780FD01284FD0E8
:105A100004213846FDF77AFD012849D04FF40041B2
:105A200056465046FDF772FD012841D04FF48041A3
:105A30003046FDF76BFD01280BD0002602214046C1
:105A4000FDF764FD012800D00020064330D102E0BC
:105A50002EE00126F2E701214046FDF757FD01281F
:105A600026D004215E465846FDF750FD01281FD080
:105A700002213046FDF74AFD012819D0B34E4FF4FC
:105A800000713046FDF742FD012811D0B1153046B6
:105A9000FDF73CFD01280BD071154046FDF736FDA2
:105AA000012805D0B1153846FDF730FD012870D129
:105AB000052000F01BFFA64E10213570A34D28468F
:105AC000FDF724FD012802D17078012806D020219D
:105AD0002846FDF71BFD012805D007E07470F0692A
